:040000003EEF01F0DE
:100008004082FACF0EF0FBCF0FF0E9CF10F0EACF25
:1000180011F0E1CF12F0E2CF13F0D9CF14F0DACF1C
:1000280015F0F3CF16F0F4CF17F0F6CF18F0F7CF9E
:1000380019F0F8CF1AF0F5CF1BF040C01CF041C002
:100048001DF042C01EF043C01FF0F29CF2A04CD03D
:100058002E042F10D8A448D081CF34F0356A81A857
:10006800FED7000ECE6ECECFCFFFCD8081B8FED7A3
:10007800CD90CF50316E306ACE503024306E000EA5
:100088003120316E000E046E0A0E036E30C001F08E
:1000980031C002F06EEC0CF001C008F002C009F0AB
:1000A800000E0B6E140E0A6EF3EC0CF008C022F072
:1000B80009C023F0246A256A22C001F023C002F097
:1000C80024C003F025C004F03A0E056E000E066E3B
:1000D800000E076E000E086E8BEC0AF0010E01246C
:1000E800366E000E0220376EF2A04DD0020E2E188A
:1000F8002F10D8A448D081CF34F0356A81AAFED712
:10010800000ECE6ECECFCFFFCD8081BAFED7CD9078
:10011800CF50316E306ACE503024306E000E312010
:10012800316E000E046E0A0E036E30C001F031C04D
:1001380002F06EEC0CF001C008F002C009F0000EED
:100148000B6E140E0A6EF3EC0CF008C022F009C016
:1001580023F0246A256A22C001F023C002F024C0DB
:1001680003F025C004F03A0E056E000E066E000E70
:10017800076E000E086E8BEC0AF0010E0124386E33
:10018800000E0220396EF2A04DD0030E2E182F104B
:10019800D8A448D081CF34F0356A81ACFED7000EA0
:1001A800CE6ECECFCFFFCD8081BCFED7CD90CF50C5
:1001B800316E306ACE503024306E000E3120316EF0
:1001C800000E046E0A0E036E30C001F031C002F05A
:1001D8006EEC0CF001C008F002C009F0000E0B6EC6
:1001E800140E0A6EF3EC0CF008C022F009C023F0DC
:1001F800246A256A22C001F023C002F024C003F05B
:1002080025C004F03A0E056E000E066E000E076E4D
:10021800000E086E8BEC0AF0010E01243A6E000EF7
:1002280002203B6EF290F28C1FC043F01EC042F0D9
:100238001DC041F01CC040F01BC0F5FF1AC0F8FFFC
:1002480019C0F7FF18C0F6FF17C0F4FF16C0F3FF78
:1002580015C0DAFF14C0D9FF13C0E2FF12C0E1FFD6
:1002680011C0EAFF10C0E9FF0FC0FBFF0EC0FAFF84
:0802780040921100CDEF0CF0E3
:101000000001000A006400E8031027253033750052
:101010005465737400202000443D00463D00533D5C
:0510200000636D0000FB
:101026006F0E0001756F000E766F08D1250E7D19C3
:10103600D8B409D06BC0D9FF6CC0DAFF7DC0DFFF22
:101046006B4B6C2BFBD0000E7C6F000E7B6F000E83
:10105600776F04D0000177856D4B6E2B6DC0F6FF60
:101066006EC0F7FF0800F550300AD8B4F3D76DC04C
:10107600F6FF6EC0F7FF0800F55006EC0DF0D8A09D
:101086003AD0000E00017C6F000E7B6F7BC060F0D3
:101096007CC061F0000E0001636F0A0E626FB9EC4E
:1010A6000CF060C07BF061C07CF0D00E0001716F67
:1010B600FF0E726F6DC0F6FF6EC0F7FF0800F550A9
:1010C600736F746B715173277251742373517B273D
:1010D60074517C236D4B6E2B6DC0F6FF6EC0F7FF0F
:1010E6000800F55006EC0DF0D8A005D0CFD7C00EFD
:1010F6000001771312D06DC0F6FF6EC0F7FF000136
:101106006D4B6E2B0800F5CF7DF07D51000AD8B4EB
:10111600A2D0750AD8B4EBD791D075C0D9FF76C0E6
:10112600DAFFDECF78F0DDCF79F0020E7527000EFC
:101136007623010E7D6F050E7D19D8B412D07D5130
:10114600020D010EF324F66E100EF420F76E090060
:10115600F550785D0900F5507959D8A002D07D2B5D
:10116600EAD7800E7DBF7F0E716F7B517D5D7C510E
:10117600800A7159D8B007D07D517B5F000E7DBFC4
:10118600FF0E7C5B04D0000E7C6F000E7B6F77A594
:1011960010D07B517C11D8B41FD06BC0D9FF6CC066
:1011A600DAFF300EDF6E6B4B6C2B7B07D8A07C070B
:1011B600F0D77B517C11D8B40FD06BC0D9FF6CC06F
:1011C600DAFF200EDF6E6B4B6C2B7B07D8A07C07FB
:1011D6007B517C11D8A4F1D77DC07AF02BD07A51FF
:1011E600020D010EF324F66E100EF420F76E0900C0
:1011F600F5CF62F00A00F5CF63F078C060F079C0F1
:1012060061F044EC0CF060C067F061C068F0000E5D
:1012160000016A6F0A0E696F97EC0CF000016751C6
:10122600300F7D6F6BC0D9FF6CC0DAFF7DC0DFFF6A
:101236006B4B6C2B7A077A29D8A4D1D76DC0F6FFF1
:101246006EC0F7FF00016D4B6E2B0800F5CF7DF0E9
:101256007D51D8A4EBD66BC0D9FF6CC0DAFF000E67
:10126600DF6E1200C2EC09F0CCEC0AF0010E0001B0
:10127600686F010E17EC0CF01E0E0001656F100E64
:10128600666F0CEC0BF0850E00016B6F000E6C6F39
:101296000B0E6D6F100E6E6F3AC06FF03BC070F0A4
:1012A60013EC08F0850E0001656F000E666F0CECFE
:1012B6000BF0210E0001656F100E666F0CEC0BF043
:1012C600150E0001656F100E666F0CEC0BF0180E14
:1012D6000001656F100E666F0CEC0BF0850E0001B9
:1012E6006B6F000E6C6F0B0E6D6F100E6E6F36C04F
:1012F6006FF037C070F013EC08F0850E0001656FD3
:10130600000E666F0CEC0BF0210E0001656F100EDF
:10131600666F0CEC0BF0060E0001686F020E17EC00
:101326000CF01B0E0001656F100E666F0CEC0BF0D7
:10133600850E00016B6F000E6C6F0B0E6D6F100E3D
:101346006E6F38C06FF039C070F013EC08F0850E80
:101356000001656F000E666F0CEC0BF0210E0001AC
:10136600656F100E666F0CEC0BF0680E00017E6F59
:10137600E40EE82EFED77E2FFCD700F075D7D38873
:10138600D38AD38C9B9CF29E000E0F01386F000E01
:10139600396F000E3A6F000E3B6F000E3C6F000E69
:1013A600926E000E936E000E946E000E956E000EF9
:1013B600966E000E806E000E816E000E826E000E1E
:1013C600836E000E846E000E896E000E8A6E000E0D
:1013D6008B6E000E8C6E000E8D6E94869488A00E19
:1013E60000016D6F860E6E6F010E6F6F000E706FCF
:1013F600BAEC0BF0030E0001766F080E756F770ED0
:10140600E82EFED7752FFCD7762FFAD74AEC0BF0CD
:1014160020EC0DF027EC0DF0010E0001686F010EB7
:1014260017EC0CF0100E0001656F100E666F0CECD9
:101436000BF0030E0001766F080E756F770EE82E1F
:10144600FED7752FFCD7762FFAD7300ECD6E400E0D
:10145600CC6E9388938A938CD09EF28EF28CF29601
:10146600F19081CF77F00001786BF2906288628A02
:10147600628C629EF18EF18CF18AF188F298F09678
:10148600F098F292F090F0929D9A1200000E0001F0
:10149600686F000E696F000E6A6F000E6B6F645105
:1014A600651166116711D8B42AD0010E6C6F06D08B
:1014B600D89064376537663767376C2B67AFF8D7D0
:1014C600D890683769376A376B376451605D655104
:1014D60061596651625967516359D8A009D0645160
:1014E600605F6551615B6651625B6751635B6881F2
:1014F600D89067336633653364336C2FE1D768C0A1
:1015060060F069C061F06AC062F06BC063F01200FF
:10151600000E096E000E0A6E000E0B6E000E0C6EAB
:101526000550061007100810D8B42AD0010E0D6E0B
:1015360006D0D89005360636073608360D2A08AE88
:10154600F8D7D89009360A360B360C360550015CAA
:10155600065002580750035808500458D8A009D01E
:101566000550015E0650025A0750035A0850045AA5
:101576000980D89008320732063205320D2EE1D79F
:1015860009C001F00AC002F00BC003F00CC004F061
:101596001200F286680E206EE40EE82EFED7202E8C
:1015A600FCD700D0000E2F6E010E2E6E8C8A0D0E0B
:1015B600E82EFED700F08C9A0D0EE82EFED700F02E
:1015C600680E206EE40EE82EFED7202EFCD700D043
:1015D600000E2F6E020E2E6E8C8C0D0EE82EFED790
:1015E60000F08C9C680E206EE40EE82EFED7202EAE
:1015F600FCD700D0000E2F6E030E2E6E8C8E0D0EB5
:10160600E82EFED700F08C9E0D0EE82EFED700F0D9
:101616001200000E00016A6F000E696F1DD00001F6
:1016260069516525676F6A516621686F67C0F6FF65
:1016360068C0F7FF000EF86E0F0EF76403D00800BF
:10164600F55005D0F6CFE9FFF7CFEAFFEF5086EC6D
:101656000BF00001694B6A2B69516525676F6A516A
:101666006621686F67C0F6FF68C0F7FF000EF86E68
:101676000F0EF76403D00800F55005D0F6CFE9FF4A
:10168600F7CFEAFFEF500009D8B41200C8D7000E12
:10169600E0EC0CF0680E0001686FE40EE82EFED751
:1016A600682FFCD700F0030EE9EC0BF01A0E0001D0
:1016B600686FF80EE82EFED7682FFCD700F0030EF1
:1016C600E9EC0BF03A0E0001686F230EE82EFED708
:1016D600682FFCD7030EE9EC0BF0020EE9EC0BF0D9
:1016E600020EE9EC0BF0080EE9EC0BF0000EE9EC4B
:1016F6000BF00C0EE9EC0BF0000EE9EC0BF0060E0D
:10170600E9EC0BF012000001626F000162510F0B51
:10171600646F6439F00B646F6251F00B636F010EF6
:10172600E0EC0CF000016351E0EC0CF000016351B9
:101736000509E0EC0CF0350EE82EFED700F00001AE
:1017460063510109E0EC0CF000016451E0EC0CF08F
:10175600000164510509E0EC0CF0350EE82EFED7C9
:1017660000F0000164510109E0EC0CF01200280EB3
:10177600C66E000EC56E000E0001606F240E616F0E
:10178600F40E626F000E636F6DC071F06EC072F082
:101796006FC073F070C074F0020ED8907137723754
:1017A60073377437E82EF9D771C064F072C065F0EC
:1017B60073C066F074C067F049EC0AF0000160057A
:1017C600C86E000EC76E9486948812000001676F7B
:1017D60000016739F00B676F010E646F000E646FCE
:1017E6006451E0EC0CF000016751E0EC0CF0040EE3
:1017F60067C062F00001636B6211656F6351666FCB
:101806006551E0EC0CF0150E0001626FC60EE82E75
:10181600FED7622FFCD700F067C065F00001666B4B
:101826006551E0EC0CF012000001696F00016905DA
:10183600D8A411D068517F0F6C6F6C390F0B6A6F8B
:101846006C510F0B6B6F6A51E9EC0BF000016B5199
:10185600E9EC0BF01200020E00016919D8A412007F
:101866006851BF0F6C6F6C390F0B6A6F6C510F0BA1
:101876006B6F6A51E9EC0BF000016B51E9EC0BF070
:101886001200000E0001666F000E656F6251631153
:10189600D8B41CD0010E646F04D0D8906237633779
:1018A600642B63AFFAD7D890653766376251605DAF
:1018B60063516159D8A005D06251605F6351615B85
:1018C6006581D89063336233642FEDD765C060F0CD
:1018D60066C061F01200000E066E000E056E035023
:1018E6000410D8B41CD0010E076E04D0D89003366D
:1018F6000436072A04AEFAD7D890053606360350C2
:10190600015C04500258D8A005D00350015E045073
:10191600025A0580D89004320332072EEDD705C04F
:1019260001F006C002F01200000169516A11D8B434
:1019360018D0010E206E04D0D89069376A37202A55
:101946006AAFFAD76951675D6A516859D8A004D061
:101956006951675F6A51685BD8906A336933202E94
:10196600F1D767C067F068C068F0120000016051E7
:101976006203F3CF20F0F4CF21F060516303F350FC
:10198600212661516203F350212620C060F021C058
:1019960061F0120000EE7FF00E0EEE6AE806FDE141
:1019A60000EE22F01E0EEE6AE806FDE1409040923F
:1019B600000EF86E000135EF09F0216E37EC0DF0E0
:1019C600000E0001616F700E606F2EEC0DF021C0ED
:1019D60060F00001616B2EEC0DF033EC0DF012009F
:1019E60008500A02F3CF0CF0F4CF0DF008500B02AA
:1019F600F3500D2609500A02F3500D260CC008F0CC
:101A06000DC009F012000001616F000E0001606F49
:101A16003A0E616105D02F0E616502D0010E606F2E
:101A260060C020F020301200C7B4FED7C5CF20F02A
:101A36001F0E2016D8B41200F7D7000EE9EC0BF0F3
:101A4600010EE9EC0BF01200000EE9EC0BF00C0EA7
:101A5600E9EC0BF0120017EC0DF060C0C9FF1200A4
:101A660017EC0DF0C584120017EC0DF0C5801200BE
:020000040020DA
:08000000FFFFFFFFFFFFFFFF00
:020000040030CA
:0E000000FF28193CFFBD80FF0FC00FE00F402E
:00000001FF
