:0400000006EF0AF00D
:071000000054657374000049
:10100800D388D38AD38C9B8CF29E000E0F01386F45
:10101800000E396F000E3A6F000E3B6F000E3C6FEA
:10102800000E926E000E936E000E946E000E956E7A
:10103800000E966E000E806E000E816E000E826E9F
:10104800000E836E000E846E000E896E000E8A6E8E
:10105800000E8B6E000E8C6E000E8D6E948694883A
:10106800A00E0E6E860E0F6E010E106E000E116E23
:1010780027EC09F0090E176E1E0E166EE40EE82E08
:10108800FED7162EFCD7172EFAD700D0E9EC08F0B9
:1010980018EC0AF01FEC0AF0010E0B6E010E80EC42
:1010A80009F0010E086E100E096ED0EC09F0090E59
:1010B800176E1E0E166EE40EE82EFED7162EFCD7FF
:1010C800172EFAD700D01200000E096E000E0A6E15
:1010D800000E0B6E000E0C6E05500610071008105F
:1010E800D8B42AD0010E0D6E06D0D8900536063633
:1010F800073608360D2A08AEF8D7D89009360A36CA
:101108000B360C360550015C065002580750035840
:1011180008500458D8A009D00550015E0650025A5C
:101128000750035A0850045A0980D89008320732E9
:10113800063205320D2EE1D709C001F00AC002F0CF
:101148000BC003F00CC004F0120004EC08F08C8013
:10115800D00E186ECA0EE82EFED7182EFCD78C902B
:10116800D00E186ECA0EE82EFED7182EFCD718EC33
:101178000AF0000E1B6E410E1A6E1BBE06D01B50E5
:101188001BE15A0E1A5CD8B017D0010E0B6E010E77
:1011980080EC09F01A5054EC09F0290E196E960EDD
:1011A800186E7F0EE82EFED7182EFCD7192EFAD708
:1011B80000F01A4A1B2AE1D7150E186EC60EE82E43
:1011C800FED7182EFCD700D0C2D7000EF5EC09F0D8
:1011D800020E0C6EA00E0B6E920EE82EFED70B2E92
:1011E800FCD70C2EFAD700D0030EA8EC09F0680E35
:1011F8000B6EE40EE82EFED70B2EFCD700D0030EA4
:10120800A8EC09F0E50E0B6E910EE82EFED70B2E1A
:10121800FCD700F0030EA8EC09F0020EA8EC09F0C8
:10122800020EA8EC09F0080EA8EC09F0000EA8ECD4
:1012380009F00C0EA8EC09F0000EA8EC09F0060E57
:10124800A8EC09F01200280EC66E000EC56E000E3E
:10125800016E900E026ED00E036E030E046E0EC069
:1012680012F00FC013F010C014F011C015F0020EE8
:10127800D8901236133614361536E82EF9D712C020
:1012880005F013C006F014C007F015C008F068ECAC
:1012980008F00104C86E000EC76E94869488120088
:1012A800056E05500F0B076E0738F00B076E0550DB
:1012B800F00B066E010EF5EC09F00650F5EC09F09E
:1012C80006500509F5EC09F0D50EE82EFED700F01A
:1012D80006500109F5EC09F00750F5EC09F0075044
:1012E8000509F5EC09F0D50EE82EFED700F00750F9
:1012F8000109F5EC09F012000C6E0C04D8A410D00A
:101308000B507F0F0F6E0F380F0B0D6E0F500F0B1A
:101318000E6E0D50A8EC09F00E50A8EC09F0120062
:10132800020E0C18D8A412000B50BF0F0F6E0F3806
:101338000F0B0D6E0F500F0B0E6E0D50A8EC09F031
:101348000E50A8EC09F012000A6E0A38F00B0A6E6B
:10135800010E076E000E076E0750F5EC09F00A50F3
:10136800F5EC09F0040E0AC005F0066A0510086ECF
:101378000650096E0850F5EC09F0540E056E1C0E67
:10138800E82EFED7052EFCD700D00AC008F0096A5F
:101398000850F5EC09F01200000E0D6E000E0C6EF0
:1013A80010D00C5008240A6E0D5009200B6E0AC08C
:1013B800F6FF0BC0F7FF0800F55054EC09F00C4A93
:1013C8000D2A0C5008240A6E0D5009200B6E0AC015
:1013D800F6FF0BC0F7FF0800F5500009D8B412005B
:1013E800E0D7046E2FEC0AF0000E036E700E026E4A
:1013F80026EC0AF004C002F0036A26EC0AF02BEC93
:101408000AF012001D6A1C6A000EF86E100EF76EC4
:101418000001A9EF08F0C7B4FED7C5CF01F01F0E31
:101428000116D8B41200F7D7000EA8EC09F0010E87
:10143800A8EC09F01200000EA8EC09F00C0EA8ECBC
:1014480009F012000FEC0AF002C0C9FF12000FECFD
:0E1458000AF0C58412000FEC0AF0C5801200E5
:020000040020DA
:08000000FFFFFFFFFFFFFFFF00
:020000040030CA
:0E000000FF28193CFFBD80FF0FC00FE00F402E
:00000001FF
